{
  "contractName": "Certificate",
  "abi": [
    {
      "inputs": [],
      "stateMutability": "nonpayable",
      "type": "constructor"
    },
    {
      "inputs": [
        {
          "internalType": "uint256",
          "name": "",
          "type": "uint256"
        }
      ],
      "name": "listCer",
      "outputs": [
        {
          "internalType": "string",
          "name": "name",
          "type": "string"
        },
        {
          "internalType": "string",
          "name": "sername",
          "type": "string"
        },
        {
          "internalType": "string",
          "name": "dateOfBirth",
          "type": "string"
        },
        {
          "internalType": "string",
          "name": "company",
          "type": "string"
        },
        {
          "internalType": "string",
          "name": "workFrom",
          "type": "string"
        },
        {
          "internalType": "string",
          "name": "workTo",
          "type": "string"
        },
        {
          "internalType": "string",
          "name": "position",
          "type": "string"
        },
        {
          "internalType": "string",
          "name": "description",
          "type": "string"
        },
        {
          "internalType": "string",
          "name": "oldHash",
          "type": "string"
        }
      ],
      "stateMutability": "view",
      "type": "function",
      "constant": true
    },
    {
      "inputs": [
        {
          "internalType": "address",
          "name": "user",
          "type": "address"
        }
      ],
      "name": "test",
      "outputs": [
        {
          "internalType": "bool",
          "name": "",
          "type": "bool"
        }
      ],
      "stateMutability": "view",
      "type": "function",
      "constant": true
    },
    {
      "inputs": [
        {
          "internalType": "address",
          "name": "user",
          "type": "address"
        },
        {
          "internalType": "string",
          "name": "company",
          "type": "string"
        }
      ],
      "name": "addUser",
      "outputs": [],
      "stateMutability": "nonpayable",
      "type": "function"
    },
    {
      "inputs": [
        {
          "internalType": "address",
          "name": "user",
          "type": "address"
        }
      ],
      "name": "deleteUser",
      "outputs": [],
      "stateMutability": "nonpayable",
      "type": "function"
    },
    {
      "inputs": [
        {
          "internalType": "string",
          "name": "name",
          "type": "string"
        },
        {
          "internalType": "string",
          "name": "sername",
          "type": "string"
        },
        {
          "internalType": "string",
          "name": "dateOfBirth",
          "type": "string"
        },
        {
          "internalType": "string",
          "name": "company",
          "type": "string"
        },
        {
          "internalType": "string",
          "name": "workFrom",
          "type": "string"
        },
        {
          "internalType": "string",
          "name": "workTo",
          "type": "string"
        },
        {
          "internalType": "string",
          "name": "position",
          "type": "string"
        },
        {
          "internalType": "string",
          "name": "description",
          "type": "string"
        }
      ],
      "name": "addCer",
      "outputs": [],
      "stateMutability": "nonpayable",
      "type": "function"
    },
    {
      "inputs": [
        {
          "internalType": "string",
          "name": "name",
          "type": "string"
        },
        {
          "internalType": "string",
          "name": "sername",
          "type": "string"
        },
        {
          "internalType": "string",
          "name": "dateOfBirth",
          "type": "string"
        },
        {
          "internalType": "string",
          "name": "company",
          "type": "string"
        },
        {
          "internalType": "string",
          "name": "workFrom",
          "type": "string"
        },
        {
          "internalType": "string",
          "name": "workTo",
          "type": "string"
        },
        {
          "internalType": "string",
          "name": "position",
          "type": "string"
        },
        {
          "internalType": "string",
          "name": "description",
          "type": "string"
        },
        {
          "internalType": "string",
          "name": "oldHash",
          "type": "string"
        }
      ],
      "name": "updateCer",
      "outputs": [],
      "stateMutability": "nonpayable",
      "type": "function"
    },
    {
      "inputs": [],
      "name": "getAllCer",
      "outputs": [
        {
          "components": [
            {
              "internalType": "string",
              "name": "name",
              "type": "string"
            },
            {
              "internalType": "string",
              "name": "sername",
              "type": "string"
            },
            {
              "internalType": "string",
              "name": "dateOfBirth",
              "type": "string"
            },
            {
              "internalType": "string",
              "name": "company",
              "type": "string"
            },
            {
              "internalType": "string",
              "name": "workFrom",
              "type": "string"
            },
            {
              "internalType": "string",
              "name": "workTo",
              "type": "string"
            },
            {
              "internalType": "string",
              "name": "position",
              "type": "string"
            },
            {
              "internalType": "string",
              "name": "description",
              "type": "string"
            },
            {
              "internalType": "string",
              "name": "oldHash",
              "type": "string"
            }
          ],
          "internalType": "struct Certificate.CerInfo[]",
          "name": "",
          "type": "tuple[]"
        }
      ],
      "stateMutability": "view",
      "type": "function",
      "constant": true
    },
    {
      "inputs": [
        {
          "internalType": "uint256",
          "name": "i",
          "type": "uint256"
        }
      ],
      "name": "getCer",
      "outputs": [
        {
          "components": [
            {
              "internalType": "string",
              "name": "name",
              "type": "string"
            },
            {
              "internalType": "string",
              "name": "sername",
              "type": "string"
            },
            {
              "internalType": "string",
              "name": "dateOfBirth",
              "type": "string"
            },
            {
              "internalType": "string",
              "name": "company",
              "type": "string"
            },
            {
              "internalType": "string",
              "name": "workFrom",
              "type": "string"
            },
            {
              "internalType": "string",
              "name": "workTo",
              "type": "string"
            },
            {
              "internalType": "string",
              "name": "position",
              "type": "string"
            },
            {
              "internalType": "string",
              "name": "description",
              "type": "string"
            },
            {
              "internalType": "string",
              "name": "oldHash",
              "type": "string"
            }
          ],
          "internalType": "struct Certificate.CerInfo",
          "name": "",
          "type": "tuple"
        }
      ],
      "stateMutability": "view",
      "type": "function",
      "constant": true
    },
    {
      "inputs": [],
      "name": "hello",
      "outputs": [
        {
          "internalType": "string",
          "name": "",
          "type": "string"
        }
      ],
      "stateMutability": "pure",
      "type": "function",
      "constant": true
    }
  ],
  "bytecode": "0x608060405234801561001057600080fd5b50336000806101000a81548173ffffffffffffffffffffffffffffffffffffffff021916908373ffffffffffffffffffffffffffffffffffffffff16021790555061282b806100606000396000f3fe608060405234801561001057600080fd5b50600436106100935760003560e01c806394d29d0e1161006657806394d29d0e1461010a578063bb29998e14610126578063c3cda29114610156578063f427947b1461018e578063f8cf8c37146101be57610093565b806319ff1d21146100985780634b68d431146100b65780635c60f226146100d25780638c034c37146100ee575b600080fd5b6100a06101dc565b6040516100ad9190611b3f565b60405180910390f35b6100d060048036038101906100cb9190611d08565b610219565b005b6100ec60048036038101906100e79190611d64565b610319565b005b61010860048036038101906101039190611d91565b6103fc565b005b610124600480360381019061011f9190611f27565b610682565b005b610140600480360381019061013b9190611d64565b6108d4565b60405161014d9190612108565b60405180910390f35b610170600480360381019061016b9190612159565b610970565b60405161018599989796959493929190612186565b60405180910390f35b6101a860048036038101906101a39190612159565b610e96565b6040516101b59190612399565b60405180910390f35b6101c66113f5565b6040516101d3919061257a565b60405180910390f35b60606040518060400160405280600981526020017f6d7973746f72796d650000000000000000000000000000000000000000000000815250905090565b60008054906101000a900473ffffffffffffffffffffffffffffffffffffffff1673ffffffffffffffffffffffffffffffffffffffff163373ffffffffffffffffffffffffffffffffffffffff16146102a7576040517f08c379a000000000000000000000000000000000000000000000000000000000815260040161029e906125e8565b60405180910390fd5b604051806020016040528082815250600160008473ffffffffffffffffffffffffffffffffffffffff1673ffffffffffffffffffffffffffffffffffffffff1681526020019081526020016000206000820151816000019080519060200190610311929190611977565b509050505050565b60008054906101000a900473ffffffffffffffffffffffffffffffffffffffff1673ffffffffffffffffffffffffffffffffffffffff163373ffffffffffffffffffffffffffffffffffffffff16146103a7576040517f08c379a000000000000000000000000000000000000000000000000000000000815260040161039e906125e8565b60405180910390fd5b600160008273ffffffffffffffffffffffffffffffffffffffff1673ffffffffffffffffffffffffffffffffffffffff168152602001908152602001600020600080820160006103f791906119fd565b505050565b600060405160200161040d90612639565b60405160208183030381529060405280519060200120600160003373ffffffffffffffffffffffffffffffffffffffff1673ffffffffffffffffffffffffffffffffffffffff1681526020019081526020016000206000016040516020016104759190612743565b6040516020818303038152906040528051906020012014905080156104cf576040517f08c379a00000000000000000000000000000000000000000000000000000000081526004016104c6906127a6565b60405180910390fd5b60026040518061012001604052808b81526020018a81526020018981526020018881526020018781526020018681526020018581526020018481526020016040518060400160405280600181526020017f2d000000000000000000000000000000000000000000000000000000000000008152508152509080600181540180825580915050600190039060005260206000209060090201600090919091909150600082015181600001908051906020019061058b929190611977565b5060208201518160010190805190602001906105a8929190611977565b5060408201518160020190805190602001906105c5929190611977565b5060608201518160030190805190602001906105e2929190611977565b5060808201518160040190805190602001906105ff929190611977565b5060a082015181600501908051906020019061061c929190611977565b5060c0820151816006019080519060200190610639929190611977565b5060e0820151816007019080519060200190610656929190611977565b50610100820151816008019080519060200190610674929190611977565b505050505050505050505050565b600060405160200161069390612639565b60405160208183030381529060405280519060200120600160003373ffffffffffffffffffffffffffffffffffffffff1673ffffffffffffffffffffffffffffffffffffffff1681526020019081526020016000206000016040516020016106fb9190612743565b604051602081830303815290604052805190602001201490508015610755576040517f08c379a000000000000000000000000000000000000000000000000000000000815260040161074c906127a6565b60405180910390fd5b60026040518061012001604052808c81526020018b81526020018a815260200189815260200188815260200187815260200186815260200185815260200184815250908060018154018082558091505060019003906000526020600020906009020160009091909190915060008201518160000190805190602001906107dc929190611977565b5060208201518160010190805190602001906107f9929190611977565b506040820151816002019080519060200190610816929190611977565b506060820151816003019080519060200190610833929190611977565b506080820151816004019080519060200190610850929190611977565b5060a082015181600501908051906020019061086d929190611977565b5060c082015181600601908051906020019061088a929190611977565b5060e08201518160070190805190602001906108a7929190611977565b506101008201518160080190805190602001906108c5929190611977565b50505050505050505050505050565b6000806040516020016108e690612639565b60405160208183030381529060405280519060200120600160008573ffffffffffffffffffffffffffffffffffffffff1673ffffffffffffffffffffffffffffffffffffffff16815260200190815260200160002060000160405160200161094e9190612743565b6040516020818303038152906040528051906020012014905080915050919050565b6002818154811061098057600080fd5b90600052602060002090600902016000915090508060000180546109a39061267d565b80601f01602080910402602001604051908101604052809291908181526020018280546109cf9061267d565b8015610a1c5780601f106109f157610100808354040283529160200191610a1c565b820191906000526020600020905b8154815290600101906020018083116109ff57829003601f168201915b505050505090806001018054610a319061267d565b80601f0160208091040260200160405190810160405280929190818152602001828054610a5d9061267d565b8015610aaa5780601f10610a7f57610100808354040283529160200191610aaa565b820191906000526020600020905b815481529060010190602001808311610a8d57829003601f168201915b505050505090806002018054610abf9061267d565b80601f0160208091040260200160405190810160405280929190818152602001828054610aeb9061267d565b8015610b385780601f10610b0d57610100808354040283529160200191610b38565b820191906000526020600020905b815481529060010190602001808311610b1b57829003601f168201915b505050505090806003018054610b4d9061267d565b80601f0160208091040260200160405190810160405280929190818152602001828054610b799061267d565b8015610bc65780601f10610b9b57610100808354040283529160200191610bc6565b820191906000526020600020905b815481529060010190602001808311610ba957829003601f168201915b505050505090806004018054610bdb9061267d565b80601f0160208091040260200160405190810160405280929190818152602001828054610c079061267d565b8015610c545780601f10610c2957610100808354040283529160200191610c54565b820191906000526020600020905b815481529060010190602001808311610c3757829003601f168201915b505050505090806005018054610c699061267d565b80601f0160208091040260200160405190810160405280929190818152602001828054610c959061267d565b8015610ce25780601f10610cb757610100808354040283529160200191610ce2565b820191906000526020600020905b815481529060010190602001808311610cc557829003601f168201915b505050505090806006018054610cf79061267d565b80601f0160208091040260200160405190810160405280929190818152602001828054610d239061267d565b8015610d705780601f10610d4557610100808354040283529160200191610d70565b820191906000526020600020905b815481529060010190602001808311610d5357829003601f168201915b505050505090806007018054610d859061267d565b80601f0160208091040260200160405190810160405280929190818152602001828054610db19061267d565b8015610dfe5780601f10610dd357610100808354040283529160200191610dfe565b820191906000526020600020905b815481529060010190602001808311610de157829003601f168201915b505050505090806008018054610e139061267d565b80601f0160208091040260200160405190810160405280929190818152602001828054610e3f9061267d565b8015610e8c5780601f10610e6157610100808354040283529160200191610e8c565b820191906000526020600020905b815481529060010190602001808311610e6f57829003601f168201915b5050505050905089565b610e9e611a3d565b60028281548110610eb257610eb16127c6565b5b906000526020600020906009020160405180610120016040529081600082018054610edc9061267d565b80601f0160208091040260200160405190810160405280929190818152602001828054610f089061267d565b8015610f555780601f10610f2a57610100808354040283529160200191610f55565b820191906000526020600020905b815481529060010190602001808311610f3857829003601f168201915b50505050508152602001600182018054610f6e9061267d565b80601f0160208091040260200160405190810160405280929190818152602001828054610f9a9061267d565b8015610fe75780601f10610fbc57610100808354040283529160200191610fe7565b820191906000526020600020905b815481529060010190602001808311610fca57829003601f168201915b505050505081526020016002820180546110009061267d565b80601f016020809104026020016040519081016040528092919081815260200182805461102c9061267d565b80156110795780601f1061104e57610100808354040283529160200191611079565b820191906000526020600020905b81548152906001019060200180831161105c57829003601f168201915b505050505081526020016003820180546110929061267d565b80601f01602080910402602001604051908101604052809291908181526020018280546110be9061267d565b801561110b5780601f106110e05761010080835404028352916020019161110b565b820191906000526020600020905b8154815290600101906020018083116110ee57829003601f168201915b505050505081526020016004820180546111249061267d565b80601f01602080910402602001604051908101604052809291908181526020018280546111509061267d565b801561119d5780601f106111725761010080835404028352916020019161119d565b820191906000526020600020905b81548152906001019060200180831161118057829003601f168201915b505050505081526020016005820180546111b69061267d565b80601f01602080910402602001604051908101604052809291908181526020018280546111e29061267d565b801561122f5780601f106112045761010080835404028352916020019161122f565b820191906000526020600020905b81548152906001019060200180831161121257829003601f168201915b505050505081526020016006820180546112489061267d565b80601f01602080910402602001604051908101604052809291908181526020018280546112749061267d565b80156112c15780601f10611296576101008083540402835291602001916112c1565b820191906000526020600020905b8154815290600101906020018083116112a457829003601f168201915b505050505081526020016007820180546112da9061267d565b80601f01602080910402602001604051908101604052809291908181526020018280546113069061267d565b80156113535780601f1061132857610100808354040283529160200191611353565b820191906000526020600020905b81548152906001019060200180831161133657829003601f168201915b5050505050815260200160088201805461136c9061267d565b80601f01602080910402602001604051908101604052809291908181526020018280546113989061267d565b80156113e55780601f106113ba576101008083540402835291602001916113e5565b820191906000526020600020905b8154815290600101906020018083116113c857829003601f168201915b5050505050815250509050919050565b60606002805480602002602001604051908101604052809291908181526020016000905b8282101561196e57838290600052602060002090600902016040518061012001604052908160008201805461144d9061267d565b80601f01602080910402602001604051908101604052809291908181526020018280546114799061267d565b80156114c65780601f1061149b576101008083540402835291602001916114c6565b820191906000526020600020905b8154815290600101906020018083116114a957829003601f168201915b505050505081526020016001820180546114df9061267d565b80601f016020809104026020016040519081016040528092919081815260200182805461150b9061267d565b80156115585780601f1061152d57610100808354040283529160200191611558565b820191906000526020600020905b81548152906001019060200180831161153b57829003601f168201915b505050505081526020016002820180546115719061267d565b80601f016020809104026020016040519081016040528092919081815260200182805461159d9061267d565b80156115ea5780601f106115bf576101008083540402835291602001916115ea565b820191906000526020600020905b8154815290600101906020018083116115cd57829003601f168201915b505050505081526020016003820180546116039061267d565b80601f016020809104026020016040519081016040528092919081815260200182805461162f9061267d565b801561167c5780601f106116515761010080835404028352916020019161167c565b820191906000526020600020905b81548152906001019060200180831161165f57829003601f168201915b505050505081526020016004820180546116959061267d565b80601f01602080910402602001604051908101604052809291908181526020018280546116c19061267d565b801561170e5780601f106116e35761010080835404028352916020019161170e565b820191906000526020600020905b8154815290600101906020018083116116f157829003601f168201915b505050505081526020016005820180546117279061267d565b80601f01602080910402602001604051908101604052809291908181526020018280546117539061267d565b80156117a05780601f10611775576101008083540402835291602001916117a0565b820191906000526020600020905b81548152906001019060200180831161178357829003601f168201915b505050505081526020016006820180546117b99061267d565b80601f01602080910402602001604051908101604052809291908181526020018280546117e59061267d565b80156118325780601f1061180757610100808354040283529160200191611832565b820191906000526020600020905b81548152906001019060200180831161181557829003601f168201915b5050505050815260200160078201805461184b9061267d565b80601f01602080910402602001604051908101604052809291908181526020018280546118779061267d565b80156118c45780601f10611899576101008083540402835291602001916118c4565b820191906000526020600020905b8154815290600101906020018083116118a757829003601f168201915b505050505081526020016008820180546118dd9061267d565b80601f01602080910402602001604051908101604052809291908181526020018280546119099061267d565b80156119565780601f1061192b57610100808354040283529160200191611956565b820191906000526020600020905b81548152906001019060200180831161193957829003601f168201915b50505050508152505081526020019060010190611419565b50505050905090565b8280546119839061267d565b90600052602060002090601f0160209004810192826119a557600085556119ec565b82601f106119be57805160ff19168380011785556119ec565b828001600101855582156119ec579182015b828111156119eb5782518255916020019190600101906119d0565b5b5090506119f99190611a89565b5090565b508054611a099061267d565b6000825580601f10611a1b5750611a3a565b601f016020900490600052602060002090810190611a399190611a89565b5b50565b6040518061012001604052806060815260200160608152602001606081526020016060815260200160608152602001606081526020016060815260200160608152602001606081525090565b5b80821115611aa2576000816000905550600101611a8a565b5090565b600081519050919050565b600082825260208201905092915050565b60005b83811015611ae0578082015181840152602081019050611ac5565b83811115611aef576000848401525b50505050565b6000601f19601f8301169050919050565b6000611b1182611aa6565b611b1b8185611ab1565b9350611b2b818560208601611ac2565b611b3481611af5565b840191505092915050565b60006020820190508181036000830152611b598184611b06565b905092915050565b6000604051905090565b600080fd5b600080fd5b600073ffffffffffffffffffffffffffffffffffffffff82169050919050565b6000611ba082611b75565b9050919050565b611bb081611b95565b8114611bbb57600080fd5b50565b600081359050611bcd81611ba7565b92915050565b600080fd5b600080fd5b7f4e487b7100000000000000000000000000000000000000000000000000000000600052604160045260246000fd5b611c1582611af5565b810181811067ffffffffffffffff82111715611c3457611c33611bdd565b5b80604052505050565b6000611c47611b61565b9050611c538282611c0c565b919050565b600067ffffffffffffffff821115611c7357611c72611bdd565b5b611c7c82611af5565b9050602081019050919050565b82818337600083830152505050565b6000611cab611ca684611c58565b611c3d565b905082815260208101848484011115611cc757611cc6611bd8565b5b611cd2848285611c89565b509392505050565b600082601f830112611cef57611cee611bd3565b5b8135611cff848260208601611c98565b91505092915050565b60008060408385031215611d1f57611d1e611b6b565b5b6000611d2d85828601611bbe565b925050602083013567ffffffffffffffff811115611d4e57611d4d611b70565b5b611d5a85828601611cda565b9150509250929050565b600060208284031215611d7a57611d79611b6b565b5b6000611d8884828501611bbe565b91505092915050565b600080600080600080600080610100898b031215611db257611db1611b6b565b5b600089013567ffffffffffffffff811115611dd057611dcf611b70565b5b611ddc8b828c01611cda565b985050602089013567ffffffffffffffff811115611dfd57611dfc611b70565b5b611e098b828c01611cda565b975050604089013567ffffffffffffffff811115611e2a57611e29611b70565b5b611e368b828c01611cda565b965050606089013567ffffffffffffffff811115611e5757611e56611b70565b5b611e638b828c01611cda565b955050608089013567ffffffffffffffff811115611e8457611e83611b70565b5b611e908b828c01611cda565b94505060a089013567ffffffffffffffff811115611eb157611eb0611b70565b5b611ebd8b828c01611cda565b93505060c089013567ffffffffffffffff811115611ede57611edd611b70565b5b611eea8b828c01611cda565b92505060e089013567ffffffffffffffff811115611f0b57611f0a611b70565b5b611f178b828c01611cda565b9150509295985092959890939650565b60008060008060008060008060006101208a8c031215611f4a57611f49611b6b565b5b60008a013567ffffffffffffffff811115611f6857611f67611b70565b5b611f748c828d01611cda565b99505060208a013567ffffffffffffffff811115611f9557611f94611b70565b5b611fa18c828d01611cda565b98505060408a013567ffffffffffffffff811115611fc257611fc1611b70565b5b611fce8c828d01611cda565b97505060608a013567ffffffffffffffff811115611fef57611fee611b70565b5b611ffb8c828d01611cda565b96505060808a013567ffffffffffffffff81111561201c5761201b611b70565b5b6120288c828d01611cda565b95505060a08a013567ffffffffffffffff81111561204957612048611b70565b5b6120558c828d01611cda565b94505060c08a013567ffffffffffffffff81111561207657612075611b70565b5b6120828c828d01611cda565b93505060e08a013567ffffffffffffffff8111156120a3576120a2611b70565b5b6120af8c828d01611cda565b9250506101008a013567ffffffffffffffff8111156120d1576120d0611b70565b5b6120dd8c828d01611cda565b9150509295985092959850929598565b60008115159050919050565b612102816120ed565b82525050565b600060208201905061211d60008301846120f9565b92915050565b6000819050919050565b61213681612123565b811461214157600080fd5b50565b6000813590506121538161212d565b92915050565b60006020828403121561216f5761216e611b6b565b5b600061217d84828501612144565b91505092915050565b60006101208201905081810360008301526121a1818c611b06565b905081810360208301526121b5818b611b06565b905081810360408301526121c9818a611b06565b905081810360608301526121dd8189611b06565b905081810360808301526121f18188611b06565b905081810360a08301526122058187611b06565b905081810360c08301526122198186611b06565b905081810360e083015261222d8185611b06565b90508181036101008301526122428184611b06565b90509a9950505050505050505050565b600082825260208201905092915050565b600061226e82611aa6565b6122788185612252565b9350612288818560208601611ac2565b61229181611af5565b840191505092915050565b60006101208301600083015184820360008601526122ba8282612263565b915050602083015184820360208601526122d48282612263565b915050604083015184820360408601526122ee8282612263565b915050606083015184820360608601526123088282612263565b915050608083015184820360808601526123228282612263565b91505060a083015184820360a086015261233c8282612263565b91505060c083015184820360c08601526123568282612263565b91505060e083015184820360e08601526123708282612263565b91505061010083015184820361010086015261238c8282612263565b9150508091505092915050565b600060208201905081810360008301526123b3818461229c565b905092915050565b600081519050919050565b600082825260208201905092915050565b6000819050602082019050919050565b60006101208301600083015184820360008601526124058282612263565b9150506020830151848203602086015261241f8282612263565b915050604083015184820360408601526124398282612263565b915050606083015184820360608601526124538282612263565b9150506080830151848203608086015261246d8282612263565b91505060a083015184820360a08601526124878282612263565b91505060c083015184820360c08601526124a18282612263565b91505060e083015184820360e08601526124bb8282612263565b9150506101008301518482036101008601526124d78282612263565b9150508091505092915050565b60006124f083836123e7565b905092915050565b6000602082019050919050565b6000612510826123bb565b61251a81856123c6565b93508360208202850161252c856123d7565b8060005b85811015612568578484038952815161254985826124e4565b9450612554836124f8565b925060208a01995050600181019050612530565b50829750879550505050505092915050565b600060208201905081810360008301526125948184612505565b905092915050565b7f4f6e6c79206f776e65722063616e2075736520746869732066756e6374696f6e600082015250565b60006125d2602083611ab1565b91506125dd8261259c565b602082019050919050565b60006020820190508181036000830152612601816125c5565b9050919050565b600081905092915050565b50565b6000612623600083612608565b915061262e82612613565b600082019050919050565b600061264482612616565b9150819050919050565b7f4e487b7100000000000000000000000000000000000000000000000000000000600052602260045260246000fd5b6000600282049050600182168061269557607f821691505b602082108114156126a9576126a861264e565b5b50919050565b60008190508160005260206000209050919050565b600081546126d18161267d565b6126db8186612608565b945060018216600081146126f657600181146127075761273a565b60ff1983168652818601935061273a565b612710856126af565b60005b8381101561273257815481890152600182019150602081019050612713565b838801955050505b50505092915050565b600061274f82846126c4565b915081905092915050565b7f4f6e6c7920757365722063616e2075736520746869732066756e6374696f6e00600082015250565b6000612790601f83611ab1565b915061279b8261275a565b602082019050919050565b600060208201905081810360008301526127bf81612783565b9050919050565b7f4e487b7100000000000000000000000000000000000000000000000000000000600052603260045260246000fdfea2646970667358221220193e752bfd4ea74f40f73252e95d6d06f01d565fac2f501193e9f9a685553d6564736f6c63430008090033",
  "immutableReferences": {},
  "source": "pragma solidity >=0.7.0 <0.9.0;\n\ncontract Certificate {\n\n    address private owner;\n\n    struct CerInfo {\n        string name;\n        string sername;\n        string dateOfBirth;\n        string company;\n        string workFrom;\n        string workTo;\n        string position;\n        string description;\n        string oldHash;\n    }\n\n    struct User {\n        string company; \n    }\n\n    mapping(address => User) users;\n\n    CerInfo [] public listCer;\n\n    constructor() {\n        owner = msg.sender;\n    }\n\n    modifier onlyOwner {\n        require( msg.sender == owner, \"Only owner can use this function\" );\n        _;\n    }\n\n    modifier onlyUser {\n        bool check = keccak256(abi.encodePacked(users[msg.sender].company)) == keccak256(abi.encodePacked(\"\"));\n        require( !check, \"Only user can use this function\" );\n        _;\n    }\n    \n    function test(address user) public view returns (bool) {\n        bool check = keccak256(abi.encodePacked(users[user].company)) == keccak256(abi.encodePacked(\"\"));\n        return check;\n    }\n\n    function addUser( address user, string memory company ) public onlyOwner {\n        users[user] = User({company: company});\n    }\n\n    function deleteUser( address user ) public onlyOwner {\n        delete users[user];\n    }\n\n    function addCer( string memory name, string memory sername, string memory dateOfBirth, string memory company, string memory workFrom, \n                     string memory workTo, string memory position, string memory description )  public onlyUser {\n        listCer.push(\n            CerInfo({\n                name: name,\n                sername: sername,\n                dateOfBirth: dateOfBirth,\n                company: company,\n                workFrom: workFrom,\n                workTo: workTo,\n                position: position,\n                description: description,\n                oldHash: \"-\"\n            })\n        );\n    }\n\n    function updateCer ( string memory name, string memory sername, string memory dateOfBirth, string memory company, string memory workFrom, \n                         string memory workTo, string memory position, string memory description, string memory oldHash ) public onlyUser {\n        listCer.push(\n            CerInfo({\n                name: name,\n                sername: sername,\n                dateOfBirth: dateOfBirth,\n                company: company,\n                workFrom: workFrom,\n                workTo: workTo,\n                position: position,\n                description: description,\n                oldHash: oldHash\n            })\n        );\n    } \n    \n    function getAllCer() public view returns (CerInfo[] memory) {\n        return listCer;\n    }\n    \n    function getCer(uint i) public view returns (CerInfo memory) {\n        return listCer[i];\n    }\n\n    function hello() public pure returns (string memory) {\n        return \"mystoryme\";\n    }\n    \n}",
  "sourcePath": "/home/mystoryme/git/work_experience_certificate/contracts/Certificate.sol",
  "compiler": {
    "name": "solc",
    "version": "0.8.9+commit.e5eed63a.Emscripten.clang"
  },
  "schemaVersion": "3.4.3",
  "updatedAt": "2021-11-13T04:22:25.206Z",
  "networkType": "ethereum",
  "devdoc": {
    "kind": "dev",
    "methods": {},
    "version": 1
  },
  "userdoc": {
    "kind": "user",
    "methods": {},
    "version": 1
  }
}