{
  "contractName": "Certificate",
  "abi": [
    {
      "inputs": [],
      "stateMutability": "nonpayable",
      "type": "constructor"
    },
    {
      "inputs": [
        {
          "internalType": "uint256",
          "name": "",
          "type": "uint256"
        }
      ],
      "name": "listCer",
      "outputs": [
        {
          "internalType": "string",
          "name": "name",
          "type": "string"
        },
        {
          "internalType": "string",
          "name": "sername",
          "type": "string"
        },
        {
          "internalType": "string",
          "name": "dateOfBirth",
          "type": "string"
        },
        {
          "internalType": "string",
          "name": "company",
          "type": "string"
        },
        {
          "internalType": "string",
          "name": "workFrom",
          "type": "string"
        },
        {
          "internalType": "string",
          "name": "workTo",
          "type": "string"
        },
        {
          "internalType": "string",
          "name": "position",
          "type": "string"
        },
        {
          "internalType": "string",
          "name": "description",
          "type": "string"
        },
        {
          "internalType": "string",
          "name": "oldHash",
          "type": "string"
        }
      ],
      "stateMutability": "view",
      "type": "function",
      "constant": true
    },
    {
      "inputs": [
        {
          "internalType": "address",
          "name": "user",
          "type": "address"
        }
      ],
      "name": "test",
      "outputs": [
        {
          "internalType": "bool",
          "name": "",
          "type": "bool"
        }
      ],
      "stateMutability": "view",
      "type": "function",
      "constant": true
    },
    {
      "inputs": [
        {
          "internalType": "address",
          "name": "user",
          "type": "address"
        },
        {
          "internalType": "string",
          "name": "company",
          "type": "string"
        }
      ],
      "name": "addUser",
      "outputs": [],
      "stateMutability": "nonpayable",
      "type": "function"
    },
    {
      "inputs": [
        {
          "internalType": "address",
          "name": "user",
          "type": "address"
        }
      ],
      "name": "deleteUser",
      "outputs": [],
      "stateMutability": "nonpayable",
      "type": "function"
    },
    {
      "inputs": [
        {
          "internalType": "string",
          "name": "name",
          "type": "string"
        },
        {
          "internalType": "string",
          "name": "sername",
          "type": "string"
        },
        {
          "internalType": "string",
          "name": "dateOfBirth",
          "type": "string"
        },
        {
          "internalType": "string",
          "name": "company",
          "type": "string"
        },
        {
          "internalType": "string",
          "name": "workFrom",
          "type": "string"
        },
        {
          "internalType": "string",
          "name": "workTo",
          "type": "string"
        },
        {
          "internalType": "string",
          "name": "position",
          "type": "string"
        },
        {
          "internalType": "string",
          "name": "description",
          "type": "string"
        }
      ],
      "name": "addCer",
      "outputs": [],
      "stateMutability": "nonpayable",
      "type": "function"
    },
    {
      "inputs": [
        {
          "internalType": "string",
          "name": "name",
          "type": "string"
        },
        {
          "internalType": "string",
          "name": "sername",
          "type": "string"
        },
        {
          "internalType": "string",
          "name": "dateOfBirth",
          "type": "string"
        },
        {
          "internalType": "string",
          "name": "company",
          "type": "string"
        },
        {
          "internalType": "string",
          "name": "workFrom",
          "type": "string"
        },
        {
          "internalType": "string",
          "name": "workTo",
          "type": "string"
        },
        {
          "internalType": "string",
          "name": "position",
          "type": "string"
        },
        {
          "internalType": "string",
          "name": "description",
          "type": "string"
        },
        {
          "internalType": "string",
          "name": "oldHash",
          "type": "string"
        }
      ],
      "name": "updateCer",
      "outputs": [],
      "stateMutability": "nonpayable",
      "type": "function"
    },
    {
      "inputs": [],
      "name": "getAllCer",
      "outputs": [
        {
          "components": [
            {
              "internalType": "string",
              "name": "name",
              "type": "string"
            },
            {
              "internalType": "string",
              "name": "sername",
              "type": "string"
            },
            {
              "internalType": "string",
              "name": "dateOfBirth",
              "type": "string"
            },
            {
              "internalType": "string",
              "name": "company",
              "type": "string"
            },
            {
              "internalType": "string",
              "name": "workFrom",
              "type": "string"
            },
            {
              "internalType": "string",
              "name": "workTo",
              "type": "string"
            },
            {
              "internalType": "string",
              "name": "position",
              "type": "string"
            },
            {
              "internalType": "string",
              "name": "description",
              "type": "string"
            },
            {
              "internalType": "string",
              "name": "oldHash",
              "type": "string"
            }
          ],
          "internalType": "struct Certificate.CerInfo[]",
          "name": "",
          "type": "tuple[]"
        }
      ],
      "stateMutability": "view",
      "type": "function",
      "constant": true
    },
    {
      "inputs": [
        {
          "internalType": "uint256",
          "name": "i",
          "type": "uint256"
        }
      ],
      "name": "getCer",
      "outputs": [
        {
          "components": [
            {
              "internalType": "string",
              "name": "name",
              "type": "string"
            },
            {
              "internalType": "string",
              "name": "sername",
              "type": "string"
            },
            {
              "internalType": "string",
              "name": "dateOfBirth",
              "type": "string"
            },
            {
              "internalType": "string",
              "name": "company",
              "type": "string"
            },
            {
              "internalType": "string",
              "name": "workFrom",
              "type": "string"
            },
            {
              "internalType": "string",
              "name": "workTo",
              "type": "string"
            },
            {
              "internalType": "string",
              "name": "position",
              "type": "string"
            },
            {
              "internalType": "string",
              "name": "description",
              "type": "string"
            },
            {
              "internalType": "string",
              "name": "oldHash",
              "type": "string"
            }
          ],
          "internalType": "struct Certificate.CerInfo",
          "name": "",
          "type": "tuple"
        }
      ],
      "stateMutability": "view",
      "type": "function",
      "constant": true
    }
  ],
  "bytecode": "0x608060405234801561001057600080fd5b50336000806101000a81548173ffffffffffffffffffffffffffffffffffffffff021916908373ffffffffffffffffffffffffffffffffffffffff1602179055506127a3806100606000396000f3fe608060405234801561001057600080fd5b50600436106100885760003560e01c8063bb29998e1161005b578063bb29998e146100fd578063c3cda2911461012d578063f427947b14610165578063f8cf8c371461019557610088565b80634b68d4311461008d5780635c60f226146100a95780638c034c37146100c557806394d29d0e146100e1575b600080fd5b6100a760048036038101906100a29190611bf8565b6101b3565b005b6100c360048036038101906100be9190611c54565b6102b3565b005b6100df60048036038101906100da9190611c81565b610396565b005b6100fb60048036038101906100f69190611e17565b61061c565b005b61011760048036038101906101129190611c54565b61086e565b6040516101249190611ff8565b60405180910390f35b61014760048036038101906101429190612049565b61090a565b60405161015c999897969594939291906120fe565b60405180910390f35b61017f600480360381019061017a9190612049565b610e30565b60405161018c9190612311565b60405180910390f35b61019d61138f565b6040516101aa91906124f2565b60405180910390f35b60008054906101000a900473ffffffffffffffffffffffffffffffffffffffff1673ffffffffffffffffffffffffffffffffffffffff163373ffffffffffffffffffffffffffffffffffffffff1614610241576040517f08c379a000000000000000000000000000000000000000000000000000000000815260040161023890612560565b60405180910390fd5b604051806020016040528082815250600160008473ffffffffffffffffffffffffffffffffffffffff1673ffffffffffffffffffffffffffffffffffffffff16815260200190815260200160002060008201518160000190805190602001906102ab929190611911565b509050505050565b60008054906101000a900473ffffffffffffffffffffffffffffffffffffffff1673ffffffffffffffffffffffffffffffffffffffff163373ffffffffffffffffffffffffffffffffffffffff1614610341576040517f08c379a000000000000000000000000000000000000000000000000000000000815260040161033890612560565b60405180910390fd5b600160008273ffffffffffffffffffffffffffffffffffffffff1673ffffffffffffffffffffffffffffffffffffffff168152602001908152602001600020600080820160006103919190611997565b505050565b60006040516020016103a7906125b1565b60405160208183030381529060405280519060200120600160003373ffffffffffffffffffffffffffffffffffffffff1673ffffffffffffffffffffffffffffffffffffffff16815260200190815260200160002060000160405160200161040f91906126bb565b604051602081830303815290604052805190602001201490508015610469576040517f08c379a00000000000000000000000000000000000000000000000000000000081526004016104609061271e565b60405180910390fd5b60026040518061012001604052808b81526020018a81526020018981526020018881526020018781526020018681526020018581526020018481526020016040518060400160405280600181526020017f2d0000000000000000000000000000000000000000000000000000000000000081525081525090806001815401808255809150506001900390600052602060002090600902016000909190919091506000820151816000019080519060200190610525929190611911565b506020820151816001019080519060200190610542929190611911565b50604082015181600201908051906020019061055f929190611911565b50606082015181600301908051906020019061057c929190611911565b506080820151816004019080519060200190610599929190611911565b5060a08201518160050190805190602001906105b6929190611911565b5060c08201518160060190805190602001906105d3929190611911565b5060e08201518160070190805190602001906105f0929190611911565b5061010082015181600801908051906020019061060e929190611911565b505050505050505050505050565b600060405160200161062d906125b1565b60405160208183030381529060405280519060200120600160003373ffffffffffffffffffffffffffffffffffffffff1673ffffffffffffffffffffffffffffffffffffffff16815260200190815260200160002060000160405160200161069591906126bb565b6040516020818303038152906040528051906020012014905080156106ef576040517f08c379a00000000000000000000000000000000000000000000000000000000081526004016106e69061271e565b60405180910390fd5b60026040518061012001604052808c81526020018b81526020018a81526020018981526020018881526020018781526020018681526020018581526020018481525090806001815401808255809150506001900390600052602060002090600902016000909190919091506000820151816000019080519060200190610776929190611911565b506020820151816001019080519060200190610793929190611911565b5060408201518160020190805190602001906107b0929190611911565b5060608201518160030190805190602001906107cd929190611911565b5060808201518160040190805190602001906107ea929190611911565b5060a0820151816005019080519060200190610807929190611911565b5060c0820151816006019080519060200190610824929190611911565b5060e0820151816007019080519060200190610841929190611911565b5061010082015181600801908051906020019061085f929190611911565b50505050505050505050505050565b600080604051602001610880906125b1565b60405160208183030381529060405280519060200120600160008573ffffffffffffffffffffffffffffffffffffffff1673ffffffffffffffffffffffffffffffffffffffff1681526020019081526020016000206000016040516020016108e891906126bb565b6040516020818303038152906040528051906020012014905080915050919050565b6002818154811061091a57600080fd5b906000526020600020906009020160009150905080600001805461093d906125f5565b80601f0160208091040260200160405190810160405280929190818152602001828054610969906125f5565b80156109b65780601f1061098b576101008083540402835291602001916109b6565b820191906000526020600020905b81548152906001019060200180831161099957829003601f168201915b5050505050908060010180546109cb906125f5565b80601f01602080910402602001604051908101604052809291908181526020018280546109f7906125f5565b8015610a445780601f10610a1957610100808354040283529160200191610a44565b820191906000526020600020905b815481529060010190602001808311610a2757829003601f168201915b505050505090806002018054610a59906125f5565b80601f0160208091040260200160405190810160405280929190818152602001828054610a85906125f5565b8015610ad25780601f10610aa757610100808354040283529160200191610ad2565b820191906000526020600020905b815481529060010190602001808311610ab557829003601f168201915b505050505090806003018054610ae7906125f5565b80601f0160208091040260200160405190810160405280929190818152602001828054610b13906125f5565b8015610b605780601f10610b3557610100808354040283529160200191610b60565b820191906000526020600020905b815481529060010190602001808311610b4357829003601f168201915b505050505090806004018054610b75906125f5565b80601f0160208091040260200160405190810160405280929190818152602001828054610ba1906125f5565b8015610bee5780601f10610bc357610100808354040283529160200191610bee565b820191906000526020600020905b815481529060010190602001808311610bd157829003601f168201915b505050505090806005018054610c03906125f5565b80601f0160208091040260200160405190810160405280929190818152602001828054610c2f906125f5565b8015610c7c5780601f10610c5157610100808354040283529160200191610c7c565b820191906000526020600020905b815481529060010190602001808311610c5f57829003601f168201915b505050505090806006018054610c91906125f5565b80601f0160208091040260200160405190810160405280929190818152602001828054610cbd906125f5565b8015610d0a5780601f10610cdf57610100808354040283529160200191610d0a565b820191906000526020600020905b815481529060010190602001808311610ced57829003601f168201915b505050505090806007018054610d1f906125f5565b80601f0160208091040260200160405190810160405280929190818152602001828054610d4b906125f5565b8015610d985780601f10610d6d57610100808354040283529160200191610d98565b820191906000526020600020905b815481529060010190602001808311610d7b57829003601f168201915b505050505090806008018054610dad906125f5565b80601f0160208091040260200160405190810160405280929190818152602001828054610dd9906125f5565b8015610e265780601f10610dfb57610100808354040283529160200191610e26565b820191906000526020600020905b815481529060010190602001808311610e0957829003601f168201915b5050505050905089565b610e386119d7565b60028281548110610e4c57610e4b61273e565b5b906000526020600020906009020160405180610120016040529081600082018054610e76906125f5565b80601f0160208091040260200160405190810160405280929190818152602001828054610ea2906125f5565b8015610eef5780601f10610ec457610100808354040283529160200191610eef565b820191906000526020600020905b815481529060010190602001808311610ed257829003601f168201915b50505050508152602001600182018054610f08906125f5565b80601f0160208091040260200160405190810160405280929190818152602001828054610f34906125f5565b8015610f815780601f10610f5657610100808354040283529160200191610f81565b820191906000526020600020905b815481529060010190602001808311610f6457829003601f168201915b50505050508152602001600282018054610f9a906125f5565b80601f0160208091040260200160405190810160405280929190818152602001828054610fc6906125f5565b80156110135780601f10610fe857610100808354040283529160200191611013565b820191906000526020600020905b815481529060010190602001808311610ff657829003601f168201915b5050505050815260200160038201805461102c906125f5565b80601f0160208091040260200160405190810160405280929190818152602001828054611058906125f5565b80156110a55780601f1061107a576101008083540402835291602001916110a5565b820191906000526020600020905b81548152906001019060200180831161108857829003601f168201915b505050505081526020016004820180546110be906125f5565b80601f01602080910402602001604051908101604052809291908181526020018280546110ea906125f5565b80156111375780601f1061110c57610100808354040283529160200191611137565b820191906000526020600020905b81548152906001019060200180831161111a57829003601f168201915b50505050508152602001600582018054611150906125f5565b80601f016020809104026020016040519081016040528092919081815260200182805461117c906125f5565b80156111c95780601f1061119e576101008083540402835291602001916111c9565b820191906000526020600020905b8154815290600101906020018083116111ac57829003601f168201915b505050505081526020016006820180546111e2906125f5565b80601f016020809104026020016040519081016040528092919081815260200182805461120e906125f5565b801561125b5780601f106112305761010080835404028352916020019161125b565b820191906000526020600020905b81548152906001019060200180831161123e57829003601f168201915b50505050508152602001600782018054611274906125f5565b80601f01602080910402602001604051908101604052809291908181526020018280546112a0906125f5565b80156112ed5780601f106112c2576101008083540402835291602001916112ed565b820191906000526020600020905b8154815290600101906020018083116112d057829003601f168201915b50505050508152602001600882018054611306906125f5565b80601f0160208091040260200160405190810160405280929190818152602001828054611332906125f5565b801561137f5780601f106113545761010080835404028352916020019161137f565b820191906000526020600020905b81548152906001019060200180831161136257829003601f168201915b5050505050815250509050919050565b60606002805480602002602001604051908101604052809291908181526020016000905b828210156119085783829060005260206000209060090201604051806101200160405290816000820180546113e7906125f5565b80601f0160208091040260200160405190810160405280929190818152602001828054611413906125f5565b80156114605780601f1061143557610100808354040283529160200191611460565b820191906000526020600020905b81548152906001019060200180831161144357829003601f168201915b50505050508152602001600182018054611479906125f5565b80601f01602080910402602001604051908101604052809291908181526020018280546114a5906125f5565b80156114f25780601f106114c7576101008083540402835291602001916114f2565b820191906000526020600020905b8154815290600101906020018083116114d557829003601f168201915b5050505050815260200160028201805461150b906125f5565b80601f0160208091040260200160405190810160405280929190818152602001828054611537906125f5565b80156115845780601f1061155957610100808354040283529160200191611584565b820191906000526020600020905b81548152906001019060200180831161156757829003601f168201915b5050505050815260200160038201805461159d906125f5565b80601f01602080910402602001604051908101604052809291908181526020018280546115c9906125f5565b80156116165780601f106115eb57610100808354040283529160200191611616565b820191906000526020600020905b8154815290600101906020018083116115f957829003601f168201915b5050505050815260200160048201805461162f906125f5565b80601f016020809104026020016040519081016040528092919081815260200182805461165b906125f5565b80156116a85780601f1061167d576101008083540402835291602001916116a8565b820191906000526020600020905b81548152906001019060200180831161168b57829003601f168201915b505050505081526020016005820180546116c1906125f5565b80601f01602080910402602001604051908101604052809291908181526020018280546116ed906125f5565b801561173a5780601f1061170f5761010080835404028352916020019161173a565b820191906000526020600020905b81548152906001019060200180831161171d57829003601f168201915b50505050508152602001600682018054611753906125f5565b80601f016020809104026020016040519081016040528092919081815260200182805461177f906125f5565b80156117cc5780601f106117a1576101008083540402835291602001916117cc565b820191906000526020600020905b8154815290600101906020018083116117af57829003601f168201915b505050505081526020016007820180546117e5906125f5565b80601f0160208091040260200160405190810160405280929190818152602001828054611811906125f5565b801561185e5780601f106118335761010080835404028352916020019161185e565b820191906000526020600020905b81548152906001019060200180831161184157829003601f168201915b50505050508152602001600882018054611877906125f5565b80601f01602080910402602001604051908101604052809291908181526020018280546118a3906125f5565b80156118f05780601f106118c5576101008083540402835291602001916118f0565b820191906000526020600020905b8154815290600101906020018083116118d357829003601f168201915b505050505081525050815260200190600101906113b3565b50505050905090565b82805461191d906125f5565b90600052602060002090601f01602090048101928261193f5760008555611986565b82601f1061195857805160ff1916838001178555611986565b82800160010185558215611986579182015b8281111561198557825182559160200191906001019061196a565b5b5090506119939190611a23565b5090565b5080546119a3906125f5565b6000825580601f106119b557506119d4565b601f0160209004906000526020600020908101906119d39190611a23565b5b50565b6040518061012001604052806060815260200160608152602001606081526020016060815260200160608152602001606081526020016060815260200160608152602001606081525090565b5b80821115611a3c576000816000905550600101611a24565b5090565b6000604051905090565b600080fd5b600080fd5b600073ffffffffffffffffffffffffffffffffffffffff82169050919050565b6000611a7f82611a54565b9050919050565b611a8f81611a74565b8114611a9a57600080fd5b50565b600081359050611aac81611a86565b92915050565b600080fd5b600080fd5b6000601f19601f8301169050919050565b7f4e487b7100000000000000000000000000000000000000000000000000000000600052604160045260246000fd5b611b0582611abc565b810181811067ffffffffffffffff82111715611b2457611b23611acd565b5b80604052505050565b6000611b37611a40565b9050611b438282611afc565b919050565b600067ffffffffffffffff821115611b6357611b62611acd565b5b611b6c82611abc565b9050602081019050919050565b82818337600083830152505050565b6000611b9b611b9684611b48565b611b2d565b905082815260208101848484011115611bb757611bb6611ab7565b5b611bc2848285611b79565b509392505050565b600082601f830112611bdf57611bde611ab2565b5b8135611bef848260208601611b88565b91505092915050565b60008060408385031215611c0f57611c0e611a4a565b5b6000611c1d85828601611a9d565b925050602083013567ffffffffffffffff811115611c3e57611c3d611a4f565b5b611c4a85828601611bca565b9150509250929050565b600060208284031215611c6a57611c69611a4a565b5b6000611c7884828501611a9d565b91505092915050565b600080600080600080600080610100898b031215611ca257611ca1611a4a565b5b600089013567ffffffffffffffff811115611cc057611cbf611a4f565b5b611ccc8b828c01611bca565b985050602089013567ffffffffffffffff811115611ced57611cec611a4f565b5b611cf98b828c01611bca565b975050604089013567ffffffffffffffff811115611d1a57611d19611a4f565b5b611d268b828c01611bca565b965050606089013567ffffffffffffffff811115611d4757611d46611a4f565b5b611d538b828c01611bca565b955050608089013567ffffffffffffffff811115611d7457611d73611a4f565b5b611d808b828c01611bca565b94505060a089013567ffffffffffffffff811115611da157611da0611a4f565b5b611dad8b828c01611bca565b93505060c089013567ffffffffffffffff811115611dce57611dcd611a4f565b5b611dda8b828c01611bca565b92505060e089013567ffffffffffffffff811115611dfb57611dfa611a4f565b5b611e078b828c01611bca565b9150509295985092959890939650565b60008060008060008060008060006101208a8c031215611e3a57611e39611a4a565b5b60008a013567ffffffffffffffff811115611e5857611e57611a4f565b5b611e648c828d01611bca565b99505060208a013567ffffffffffffffff811115611e8557611e84611a4f565b5b611e918c828d01611bca565b98505060408a013567ffffffffffffffff811115611eb257611eb1611a4f565b5b611ebe8c828d01611bca565b97505060608a013567ffffffffffffffff811115611edf57611ede611a4f565b5b611eeb8c828d01611bca565b96505060808a013567ffffffffffffffff811115611f0c57611f0b611a4f565b5b611f188c828d01611bca565b95505060a08a013567ffffffffffffffff811115611f3957611f38611a4f565b5b611f458c828d01611bca565b94505060c08a013567ffffffffffffffff811115611f6657611f65611a4f565b5b611f728c828d01611bca565b93505060e08a013567ffffffffffffffff811115611f9357611f92611a4f565b5b611f9f8c828d01611bca565b9250506101008a013567ffffffffffffffff811115611fc157611fc0611a4f565b5b611fcd8c828d01611bca565b9150509295985092959850929598565b60008115159050919050565b611ff281611fdd565b82525050565b600060208201905061200d6000830184611fe9565b92915050565b6000819050919050565b61202681612013565b811461203157600080fd5b50565b6000813590506120438161201d565b92915050565b60006020828403121561205f5761205e611a4a565b5b600061206d84828501612034565b91505092915050565b600081519050919050565b600082825260208201905092915050565b60005b838110156120b0578082015181840152602081019050612095565b838111156120bf576000848401525b50505050565b60006120d082612076565b6120da8185612081565b93506120ea818560208601612092565b6120f381611abc565b840191505092915050565b6000610120820190508181036000830152612119818c6120c5565b9050818103602083015261212d818b6120c5565b90508181036040830152612141818a6120c5565b9050818103606083015261215581896120c5565b9050818103608083015261216981886120c5565b905081810360a083015261217d81876120c5565b905081810360c083015261219181866120c5565b905081810360e08301526121a581856120c5565b90508181036101008301526121ba81846120c5565b90509a9950505050505050505050565b600082825260208201905092915050565b60006121e682612076565b6121f081856121ca565b9350612200818560208601612092565b61220981611abc565b840191505092915050565b600061012083016000830151848203600086015261223282826121db565b9150506020830151848203602086015261224c82826121db565b9150506040830151848203604086015261226682826121db565b9150506060830151848203606086015261228082826121db565b9150506080830151848203608086015261229a82826121db565b91505060a083015184820360a08601526122b482826121db565b91505060c083015184820360c08601526122ce82826121db565b91505060e083015184820360e08601526122e882826121db565b91505061010083015184820361010086015261230482826121db565b9150508091505092915050565b6000602082019050818103600083015261232b8184612214565b905092915050565b600081519050919050565b600082825260208201905092915050565b6000819050602082019050919050565b600061012083016000830151848203600086015261237d82826121db565b9150506020830151848203602086015261239782826121db565b915050604083015184820360408601526123b182826121db565b915050606083015184820360608601526123cb82826121db565b915050608083015184820360808601526123e582826121db565b91505060a083015184820360a08601526123ff82826121db565b91505060c083015184820360c086015261241982826121db565b91505060e083015184820360e086015261243382826121db565b91505061010083015184820361010086015261244f82826121db565b9150508091505092915050565b6000612468838361235f565b905092915050565b6000602082019050919050565b600061248882612333565b612492818561233e565b9350836020820285016124a48561234f565b8060005b858110156124e057848403895281516124c1858261245c565b94506124cc83612470565b925060208a019950506001810190506124a8565b50829750879550505050505092915050565b6000602082019050818103600083015261250c818461247d565b905092915050565b7f4f6e6c79206f776e65722063616e2075736520746869732066756e6374696f6e600082015250565b600061254a602083612081565b915061255582612514565b602082019050919050565b600060208201905081810360008301526125798161253d565b9050919050565b600081905092915050565b50565b600061259b600083612580565b91506125a68261258b565b600082019050919050565b60006125bc8261258e565b9150819050919050565b7f4e487b7100000000000000000000000000000000000000000000000000000000600052602260045260246000fd5b6000600282049050600182168061260d57607f821691505b60208210811415612621576126206125c6565b5b50919050565b60008190508160005260206000209050919050565b60008154612649816125f5565b6126538186612580565b9450600182166000811461266e576001811461267f576126b2565b60ff198316865281860193506126b2565b61268885612627565b60005b838110156126aa5781548189015260018201915060208101905061268b565b838801955050505b50505092915050565b60006126c7828461263c565b915081905092915050565b7f4f6e6c7920757365722063616e2075736520746869732066756e6374696f6e00600082015250565b6000612708601f83612081565b9150612713826126d2565b602082019050919050565b60006020820190508181036000830152612737816126fb565b9050919050565b7f4e487b7100000000000000000000000000000000000000000000000000000000600052603260045260246000fdfea26469706673582212200250aebe32896ea95448be61d45382954b3c95f3350b8016dcfe098ae8ce9b4064736f6c63430008090033",
  "immutableReferences": {},
  "source": "pragma solidity >=0.7.0 <0.9.0;\n\ncontract Certificate {\n\n    address private owner;\n\n    struct CerInfo {\n        string name;\n        string sername;\n        string dateOfBirth;\n        string company;\n        string workFrom;\n        string workTo;\n        string position;\n        string description;\n        string oldHash;\n    }\n\n    struct User {\n        string company; \n    }\n\n    mapping(address => User) users;\n\n    CerInfo [] public listCer;\n\n    constructor() {\n        owner = msg.sender;\n    }\n\n    modifier onlyOwner {\n        require( msg.sender == owner, \"Only owner can use this function\" );\n        _;\n    }\n\n    modifier onlyUser {\n        bool check = keccak256(abi.encodePacked(users[msg.sender].company)) == keccak256(abi.encodePacked(\"\"));\n        require( !check, \"Only user can use this function\" );\n        _;\n    }\n    \n    function test(address user) public view returns (bool) {\n        bool check = keccak256(abi.encodePacked(users[user].company)) == keccak256(abi.encodePacked(\"\"));\n        return check;\n    }\n\n    function addUser( address user, string memory company ) public onlyOwner {\n        users[user] = User({company: company});\n    }\n\n    function deleteUser( address user ) public onlyOwner {\n        delete users[user];\n    }\n\n    function addCer( string memory name, string memory sername, string memory dateOfBirth, string memory company, string memory workFrom, \n                     string memory workTo, string memory position, string memory description )  public onlyUser {\n        listCer.push(\n            CerInfo({\n                name: name,\n                sername: sername,\n                dateOfBirth: dateOfBirth,\n                company: company,\n                workFrom: workFrom,\n                workTo: workTo,\n                position: position,\n                description: description,\n                oldHash: \"-\"\n            })\n        );\n    }\n\n    function updateCer ( string memory name, string memory sername, string memory dateOfBirth, string memory company, string memory workFrom, \n                         string memory workTo, string memory position, string memory description, string memory oldHash ) public onlyUser {\n        listCer.push(\n            CerInfo({\n                name: name,\n                sername: sername,\n                dateOfBirth: dateOfBirth,\n                company: company,\n                workFrom: workFrom,\n                workTo: workTo,\n                position: position,\n                description: description,\n                oldHash: oldHash\n            })\n        );\n    } \n    \n    function getAllCer() public view returns (CerInfo[] memory) {\n        return listCer;\n    }\n    \n    function getCer(uint i) public view returns (CerInfo memory) {\n        return listCer[i];\n    }\n    \n}",
  "sourcePath": "/home/mystoryme/github/work_experience_certificate/contracts/Certificate.sol",
  "compiler": {
    "name": "solc",
    "version": "0.8.9+commit.e5eed63a.Emscripten.clang"
  },
  "schemaVersion": "3.4.3",
  "updatedAt": "2021-11-12T07:30:56.824Z",
  "networkType": "ethereum",
  "devdoc": {
    "kind": "dev",
    "methods": {},
    "version": 1
  },
  "userdoc": {
    "kind": "user",
    "methods": {},
    "version": 1
  }
}